:020000040000FA
:1000000008580020E925000051770000D5250000A0
:10001000D5250000D5250000D5250000D5250000F8
:100020000000000000000000000000008D2600001D
:10003000D525000000000000D5250000D5250000D2
:10004000E9270000E9270000E9270000E927000070
:10005000E9270000E9270000E9270000E927000060
:10006000E9270000E9270000E9270000E927000050
:10007000E9270000E9270000E9270000E927000040
:10008000E9270000E9270000E9270000E927000030
:10009000E9270000E9270000E9270000E927000020
:1000A000E9270000E9270000E9270000E927000010
:1000B000E9270000E9270000E9270000E927000000
:1000C000E9270000E9270000E9270000E9270000F0
:1000D000E9270000E9270000E9270000E9270000E0
:1000E000E9270000E9270000E9270000E9270000D0
:1000F000E9270000E9270000E9270000E9270000C0
:10010000E9270000E9270000E9270000E9270000AF
:10011000E9270000E9270000E9270000E92700009F
:10012000E9270000E9270000E9270000E92700008F
:10013000E9270000E9270000E9270000E92700007F
:10014000E9270000E9270000E9270000E92700006F
:10015000E9270000E9270000E9270000E92700005F
:10016000DB8E0000E9270000E9270000E9270000F6
:10017000E9270000E9270000E9270000E92700003F
:10018000E9270000E9270000E9270000E92700002F
:10019000E9270000E9270000E9270000E92700001F
:1001A000E9270000E9270000E9270000E92700000F
:1004800053B94AB9002908BF00281CBF4FF0FF31FB
:100490004FF0FF3000F00CB8ADF1080C6DE904CE60
:1004A00000F008F8DDF804E0DDE9022304B070474D
:1004B000704700BF2DE9F04786468C460846089EE7
:1004C000154674461946002B40F0C1808542B2FAA9
:1004D00082F245D94AB1C2F1200300FA02FC9540EC
:1004E00094402EFA03F343EA0C0C4FEA154EA8B2DF
:1004F000230CBCFBFEF80EFB18CC08FB00F943EA0A
:100500000C43994528D9EB1808F1FF3704D29945D7
:1005100002D9A8F102072B44A3EB0903A4B2B3FB51
:10052000FEFC0EFB1C330CFB00F044EA0344A0422B
:1005300014D92C190CF1FF3304D2A04202D9ACF12A
:1005400002032C44241A43EA07401EB1D44000237E
:1005500034607360BDE8F0874746DDE76346F1E746
:1005600092BB431B01214FEA154EAFB2200CB3FBE7
:10057000FEFC0EFB1C330CFB07F840EA03439845D6
:1005800061D9EB180CF1FF3004D2984502D9ACF1D7
:1005900002002B44A3EB0803A4B2B3FBFEFC0EFB4A
:1005A0001C330CFB07F744EA0344A7424DD92C192E
:1005B0000CF1FF3304D2A74202D9ACF102032C4460
:1005C000E41B43EA0040C0E7C2F120039540944099
:1005D00020FA03F12EFA03F34FEA154E9040AFB222
:1005E0000343B1FBFEFC0EFB1C10190C0CFB07F8BF
:1005F00041EA0041884522D969180CF1FF3004D244
:10060000884502D9ACF102002944A1EB08019BB254
:10061000B1FBFEFC0EFB1C110CFB07F743EA014388
:100620009F420ED9EB180CF1FF3104D29F4202D940
:10063000ACF102012B44DB1B41EA004193E7604629
:10064000E3E76146F7E76046A4E76346B8E783421D
:1006500006D916B9002108467CE7C6E900E0F9E7AB
:10066000B3FA83F78FB9834201D3724508D8BEEB42
:10067000020460EB030301209C461EB9002169E7D8
:100680003846FAE7C6E9004CF8E7C7F1200CBB4052
:100690000EFA07F522FA0CF42EFA0CF1BA401C43BC
:1006A00020FA0CF3B8404FEA144901431FFA84FEC4
:1006B000B3FBF9F809FB18300B0C08FB0EFA43EA00
:1006C00000439A4540D9E31808F1FF3004D29A4517
:1006D00002D9A8F102002344A3EB0A0389B2B3FBB9
:1006E000F9F809FB183308FB0EFE41EA03418E4579
:1006F0002CD9611808F1FF3304D28E4502D9A8F134
:100700000203214443EA0040A1EB0E01A0FB029842
:100710004145CE46434602D306D14D4504D2013869
:10072000B9EB020E68EB0403002EA7D0B5EB0E0266
:1007300061EB030101FA0CFC22FA07F3F9404CEAE1
:100740000303C6E9003199E74046C5E74346D9E7C8
:1007500070B4174E0C46B042154608D00136B04270
:100760000FD0023EB04210D070BC05F0D5BD0AA338
:10077000D3E90023C5E900230E4B0020236070BCA1
:10078000704707A3D3E90023F4E707A3D3E90023C5
:10079000F0E700BFAFF3008002C0FF7F0000000061
:1007A00003C0FF7F0000000001C0FF7F00000000C9
:1007B00002C0FF7F03004E8030B5464B464A4921B8
:1007C000C2F80036C2F80436C2F80836C2F80C3651
:1007D000C2F81036C2F81436C2F81836C2F81C3601
:1007E00002F58052C2F800363C48C2F8043687B0A1
:1007F000C2F80836C2F80C36C2F81036C2F8143601
:10080000C2F81836C2F81C3606F0DAFE06F089FA8D
:1008100000F0C6FB054603A800F024FE0446284667
:1008200000F0CEFB2E4B1B68A34205D045212D487E
:1008300006F0C6FE06F004FC4921059A2A4806F097
:10084000BFFE039929484B7D0A7DC98A0091492141
:1008500006F0B6FE4921264806F0B2FE4FF460418C
:10086000002002F0C9FC044620B14521214806F0D1
:10087000A7FEFEE702A99DF8100000F043F8029AD7
:10088000059B1D4D1344039A128913442B6002F0FB
:1008900047FC01F053F901F023F906F0AEFF02F036
:1008A00077F801F039F984F30B8884F30A882B6810
:1008B0001B6883F3088884F31488BFF36F8FBFF33A
:1008C0006F8F2B6858680D4B984745210C4806F0F0
:1008D00077FEFEE73546526E00801050FAB40000F5
:1008E0000001002013B5000036B5000065B500001A
:1008F00083B50000A8B50000880300204100002057
:10090000DBB50000024608B538B105480023452193
:1009100006F056FE6FF0150008BD0860FCE700BF4A
:10092000FEB5000021B1012906D06FF01500704717
:10093000044B53F830007047024B03EBC003586878
:10094000704700BF689D00002DE9F04FAFB0DDF8A3
:10095000E8C05D4F0DF178083D68CDF80CC0DDF8BA
:10096000E4C0CDF80480CDF808C0DDF8E0C08246D0
:10097000CDF800C0894616463B9C00F0F7F830B130
:100980003D6800F015FB28462FB0BDE8F08F24B17C
:1009900040224146204606F01CFF002349460093B2
:1009A00032464FF6FF7308A806F0BCF981460028CE
:1009B000E6D1314650460D9C06F082FAA042DFD3C4
:1009C0004FF0FF34DFF804A1DFF804B10DF11A0392
:1009D00006AA07A908A806F0F3F90028D0DB6ED113
:1009E000079908A806F038FABDF81A3040B94FF652
:1009F000FF70384931F8022B8242C1D09342F9D1BD
:100A0000122B15D0242B33D0012BDFD1BDF8183099
:100A1000402BB5D8304607990EAA06F018FE0028DC
:100A2000AED19DF818100EA800F056F80446CDE798
:100A3000BDF81890B9F1400FA2D14B463046079946
:100A40000EAA06F004FE00289AD100F0A9FA4A4640
:100A500005900EA9404600F05BF98146059800F02C
:100A6000AFFADAF800304B458AD14FF00109ADE713
:100A7000002C21DBDBF800309C421DDABDF8185059
:100A8000402D7FF47DAF2B46304607990EAA06F025
:100A9000DEFD00287FF474AF00F082FAE4B229464C
:100AA000BDF8183005900EAA4046009400F00EF9EB
:100AB0000546059800F084FA4FF0FF3486E7B9F157
:100AC000000F7FF45EAF5BE7FC0000200001002018
:100AD000709D0000CCB400002DE9F0414029804613
:100AE0000D46ADF59C6D06D94FF0FF3420460DF54F
:100AF0009C6DBDE8F0810024194B1A4E1B681A4FFB
:100B00000193019B9C42EFDA4FF413720021A5A8D8
:100B100006F06AFE4FF41372A5A912A806F059FE5A
:100B2000394612A807F067FC736812A81A6856F8CD
:100B3000081B07F080FC0023402202A9A59312A8FD
:100B4000A5AB07F08CFC12A807F04AFC2A464146E8
:100B500002A806F02EFE0028C8D00134D1E700BF5D
:100B6000709D0000749D00000B0000022DE9F0470D
:100B700092464FF41372ADF5936D0DEB02000C46E7
:100B800000219946DDF8C054DDF8B864DDF8C4747E
:100B900006F02AFE4FF4137268460DEB020106F0D0
:100BA00018FE68461C4907F026FC35B1002F04DD0D
:100BB0003A462946684607F03EFC002563892289AB
:100BC000D4F80C8013449844A84509D80024402246
:100BD0006846DDF8BC1493AB939407F040FC0CE03E
:100BE000A8EB0507B74228BF37464A463B46294689
:100BF000504606F02CFD044638B1684607F0F0FB7D
:100C000020460DF5936DBDE8F0873A4649466846A3
:100C100007F011FC3D44D7E70B0000022DE9F0413D
:100C20000F460021254D88B0402B904606469DF882
:100C300038202C6800910FD1214B53F8321003EB70
:100C4000C2035B680091186801AA0144302368461A
:100C500006F02BFB30B12C6800F0AAF9204608B052
:100C6000BDE8F081DDE900431C442146684605AB40
:100C700002AA06F042FB0028EDD1039A032AEAD12A
:100C80001049049806F095FD0028E4D121466846F5
:100C900001AA06F01EFB0028DDD1DDE9003299181B
:100CA0008C42D8D1202AD6D142463946304600F06F
:100CB000C1FE0028CFD0044B1C68CDE7FC0000200B
:100CC000749D000024B60000000100202DE9F743C8
:100CD00099460E4B402907460D4690461C680FD199
:100CE00000F05EF99DF828300646424629460093FA
:100CF00038464B46FFF792FF0446304600F060F955
:100D000000F056F9204603B0BDE8F083FC00002057
:100D100070B5094B04461D680023934205D1074B6B
:100D20001D6800F045F9284670BDE65CC85C864247
:100D3000F7D10133F1E700BFFC00002000010020E3
:100D4000094A40000B7852F820108B4209D001303C
:100D500052F82000834214BF4FF0FF304FF4407030
:100D600070474FF4407070477C9D00001FB55823BA
:100D700003FB0100046A1023A1686A46204610396B
:100D800006F065FC034640B122784521064806F08E
:100D900017FC0024204604B010BD10226846034909
:100DA00006F007FDF6E700BF28B60000EAB4000031
:100DB00038B50E4B0446002918BF0B46436203F5B5
:100DC00000630321036506F0BBF858B90A212046E9
:100DD00006F0B6F8054638B9206A06F062FCE06510
:100DE000284638BD0125FBE70925F9E78C030020DB
:100DF0002DE9F04F81460D469A46144685B0002AEB
:100E000051D08368994256D25B1A934253D306F06D
:100E100048FC8346484606F04BFC102201466846D3
:100E200006F0E2FCCBF100082819BAF1000F07D058
:100E300008EA0508A0EB0B05204E214C214F04E0E9
:100E400008EA0008F8E7A5EB0B0545452BD05B4603
:100E50006A462946484606F00FFC28BBC6F80046FD
:100E6000C6F80446C6F80846C6F80C46C6F810464A
:100E7000C6F81446C6F81846C6F81C46C7F8004619
:100E8000C7F80446C7F80846C7F80C46C7F8104626
:100E9000C7F81446C7F81846C7F81C46BAF1000F41
:100EA00005D04545CFD8002005B0BDE8F08F5D44A2
:100EB000A845CAD8F7E74FF0FF30F5E7008010509B
:100EC0003546526E009010502C2359430C4B42185B
:100ED0004158994206D1D16813895B1802D25189D1
:100EE000C91801D300207047136A9B689942F9D250
:100EF000136940F60C621A420CBF012000207047B3
:100F00003DB8F3962C23F0B503FB020585B00446EB
:100F10002F6A00F045F80023CDE9023301934FF426
:100F2000807306463A46294600932046054BFFF754
:100F30000BFD0446304600F043F800F039F8204637
:100F400005B0F0BDFC1E002073B500210646084622
:100F5000FFF7E8FC06F120010546C0B201F080F978
:100F60000446C8B90121FFF7DDFC06F14C01054636
:100F7000C0B201F075F9044658B10123CDE900343F
:100F8000064800232A46452106F01AFB304606F0A3
:100F90004AF8204602B070BD0023EFE754B60000C7
:100FA000024B1868421C1A60704700BF8C13002067
:100FB000024A1368013B1360704700BF8C13002086
:100FC00008B5034B1B68834201D006F039F808BD11
:100FD0008C1300202DE9F0412C2707FB0107044664
:100FE0000D461646D7F8208005F0FEFF10B93B6984
:100FF000DB061ED5B5B14146204606F072F8F379FE
:10100000042B0AD12046216A06F06BF8024648B943
:101010004921194806F0D4FA04E0002002F0A0F9B2
:101020000428EFD0154B1C68FFF7C2FF2046BDE82F
:10103000F08129462046FFF747FF70B9104B1C6826
:10104000104B1B68A342EFD0A5B10121404605F02B
:10105000C6FF0D4A45210D48DCE7FFF7A1FF2A46F0
:10106000074631462046FFF74DFF04463846FFF756
:10107000A7FFE5E7064AEDE7A3B60000F800002069
:10108000FC0000200001002099B60000E2B600003C
:1010900091B60000004870479017002073B50D46C8
:1010A000002104462846CDE9001105F0E5FF28B3EC
:1010B00023681A4EB34203D1204601AA05F002FF6D
:1010C000E36AB34204D16A460121204605F0FAFEE4
:1010D000DDE90032934288BF0193019BAB60019A26
:1010E0002946204600F0BAFB0D4B1A68002A03DDA2
:1010F00057210C4806F064FA02B070BD0146204644
:10110000FFF734FE064605F1080105F0BCFEAB68AA
:101110003046019306F09AFAE1E700BF3DB8F39636
:10112000F01700200AB700002DE9F84F88469146D5
:101130009A460026DFF88CB0234C244D0B9B9E4230
:1011400001D300200FE00B9B40469F1BB7F5806F3B
:1011500028BF4FF480671B4A3B4606EB0A0106F0A6
:1011600076FA10B10120BDE8F88F0A993B465A463D
:101170004846711806F080FA0028F3D1144B3E441B
:10118000C3F80046C3F80446C3F80846C3F80C4643
:10119000C3F81046C3F81446C3F81846C3F81C46F3
:1011A000C5F80046C5F80446C5F80846C5F80C461B
:1011B000C5F81046C5F81446C5F81846C5F81C46CB
:1011C000BCE700BF901300203546526E00901050CF
:1011D000008010502DE9F04186B00E460446FFF71E
:1011E000B3FE014628B14521964806F0E9F905F01D
:1011F00027FF2046FFF7DCFD054668B900222046A0
:10120000114605F0F8FE054608B3002257218E4826
:1012100006F0D6F90123A1E04FF4807257218B48E4
:1012200006F0CEF901239D4284F85830E6D194F8B7
:101230005830042B8DF80F3000F29380012B00F210
:10124000978000F0AA80FF2384F85830A5E020465C
:1012500000F010FA0028DDD002A805F004FF0146D6
:10126000204605F072FF18B12A4657217848CFE78B
:1012700002A805F001FF80F0010102AA2046C9B2D0
:1012800005F0B9FE02460028BFD102A805F0F4FE21
:10129000054660BB204602A9FFF700FF9DF80F300E
:1012A00084F85830033B012B06D8284600F006F995
:1012B00010B1FF2384F858309DF80F30023B022B09
:1012C0000BD8002000F0E4F838B1FF2384F8583040
:1012D0004521604806F074F9FEE794F85830FF2B7A
:1012E000F6D000222046114605F085FE92E79DF8D3
:1012F0000F70012F1FD1104602F032F8831E022B0F
:10130000054615D8FFF74CFE3946804602AA20460E
:10131000FFF760FE07464046FFF752FE4E4B1B6844
:101320009F4205D04D4B1D68AF4214BF05250125D6
:1013300084F858507BE7FFF733FE0121074602AAE5
:101340002046FFF747FE05463846FFF739FE424B79
:101350001B689D4214BF05239DF80F3084F8583058
:1013600065E7052B7FF46FAF002000F0A7F811E0D0
:10137000204602A9FFF792FE94F85830DA1E012A9F
:1013800012D8002000F09AF800287FF45CAF00200B
:1013900000F07EF800287FF456AF94F85830FF2B09
:1013A00005D145212B4820E7022BF6D1EFE700229B
:1013B000012B2B4F019213D01146204605F01BFE46
:1013C00070B13D681022002102A806F00DFA2046F7
:1013D00005F029FEFFF7ECFD284606B0BDE8F081D8
:1013E000FFF7DEFD0022804611462046FFF7F2FDA2
:1013F00005464046FFF7E4FDDFF85C80D8F8003092
:101400009D42DED13B689D42DBD0144B1B689D4260
:10141000D7D00021204605F004FE0028D1D1019B41
:1014200001330193019B012B7FF4E1AE206A05F0AB
:1014300076FC3071236A5B683460D8F80050B36082
:10144000C0E700BF39B70000ACB700006AB70000C2
:10145000D8B7000002B8000000010020F80000200A
:10146000FC00002038B50446002005F084FDFFF79D
:1014700097FD214605460548FFF7ACFE0446284681
:10148000FFF79EFDFFF794FD204638BD9017002022
:1014900013B5094B01A913F8300000F0E1FE48B97B
:1014A000019806F083FB0446019806F0CFF8204629
:1014B00002B010BD0124FAE7849D00001FB50F4B58
:1014C00001A913F8300000F0CBFEA8B9019802A9D9
:1014D00001F0F0FE044668B99DF80B30032B03D1F0
:1014E000019806F031FB0446019806F0AFF820465B
:1014F00004B010BD0124F7E70124F8E7849D000043
:101500002DE9F34106460C4617461D460BB900214E
:1015100021E0184605F0B0FD01460028F7D130461D
:10152000FFF724FC18B9012002B0BDE8F08101A941
:1015300005F0A9FC0028F6D10199304605F036FEE9
:10154000736A59686B79012B18D1002CDFD12B6895
:10155000834298BF00212C2303FB04663A462023D4
:10156000306A06F074F80028DDD1002DDCD0386830
:101570000D4BC01A18BF4FF0FF30D5E7022BC6D174
:101580002B68012B05D98342C1D8B4FA84F46409CD
:10159000BDE7BCD1002CDED0012CB8D12C79023CA7
:1015A00018BF0124B3E700BF3DB8F3962DE9F04F13
:1015B00007460C4685B0014600201646FFF7C0FBE3
:1015C000051E51DB3846E46D05F054FC5FFA84F9E2
:1015D0004FF0000A4FF0010B4FF0FF346B1E09FB78
:1015E00003089DB9BAF1010F03DD4521204805F03C
:1015F000E7FF631C06D0FF2C2ADC40F20113013404
:101600003460B380284605B0BDE8F08F6B1E0093B0
:101610004146012338460DF10F0206F018F8031E6B
:10162000019323DB012238460DF10F0106F026FA63
:10163000019B40B15B4501D00AF1010A9B46009D28
:10164000A8EB0908CDE7B4F1FF3F08BF2C46F5E74A
:101650000223A4F580747371631004F00104013354
:10166000013433603471CDE70725CBE70125C9E7A5
:101670000EB80000F8B5866A456D0446AE4208D043
:101680006B1CB34205D05721174805F099FF002085
:10169000F8BDB6F5807F19D957211448F5E7626A7D
:1016A00002EBC3025768226D02EBC3025268BA42D2
:1016B00002D057210E48E8E701339D42EFD1204682
:1016C00005F065FE28B957210A48DEE700231F46CA
:1016D000F3E7AE4205D9636A03EBC5035B68BB421F
:1016E000E7D10120D4E700BF31B8000069B800009D
:1016F00098B80000C4B8000010B588B0044604A92A
:10170000006A01F0D7FD9DF81020012A40D0254B3A
:101710002549032A08BF0B469DF813204921029250
:101720009DF81220214801929DF811200092204A34
:1017300005F046FFE06C06A901F0BCFD9DF81820FD
:10174000012A27D0174B1849032A08BF0B469DF8DA
:101750001B20492102929DF81A20144801929DF8FD
:1017600019200092134A05F02BFF9DF81030012B31
:1017700012D19DF81230032B0ED19DF81830012B99
:101780000AD00D48492105F01BFF022008B010BD0A
:101790000A4BC1E7094BDAE70948492105F010FF78
:1017A0000020F3E7FDB8000006B900001AB90000F8
:1017B0000CB900005BB900006BB9000001B9000072
:1017C0008AB9000070B54B6814461E4A03F0FF2327
:1017D000934206460D4686B02FD10B68012B2CD1C3
:1017E000204604A901F066FD9DF81020012A26D0AC
:1017F000154B1649032A08BF0B469DF813204921B3
:1018000002929DF81220124801929DF81120009238
:10181000104A05F0D5FE9DF81030032B0DD121465E
:10182000304605F05EFC204606F08EF92046A96899
:1018300005F037FB204601F01DFD06B070BD064BDC
:10184000DBE700BF00010004FDB8000006B900009E
:101850001AB900005BB9000001B900002DE9F04F92
:101860001646054687B00C466E48492105F0A8FE8D
:101870003146284605F09AFC6B6A824620465E682F
:1018800005F0FAFBE8B1E86D05F080FB0023AF6AD4
:10189000013F3344984201D9013FFAE7BA4510D3DA
:1018A0005721614805F08CFE07FB06F357210AFB20
:1018B00006625E4805F084FE0123E37107B0BDE8CF
:1018C000F08FEB6C21461A46284603932F6AFFF7E8
:1018D00079FF6379012B4AD1D046DFF854B141E05A
:1018E0002268C2F101035344984539D86B6A012A32
:1018F000196853F8380003EBC80353F8083CA0EB11
:101900000109A3EB010304930FD1E368022B08D074
:101910003946284605F0E5FB22463946284605F0BB
:10192000F5FB2846039905F0DCFB002332464946C7
:10193000384605F047FB049B3A4639462846CDE930
:101940000096FFF7F1FB2146284605F0A2FB23682D
:101950000133236020B1DBF800300133CBF80030D5
:1019600008F1FF38B8F1000FBAD101232360022338
:101970004FF001086371C245A0D3236898454ED348
:101980006A6A4FEAC80352F83810083BD2F800B030
:101990000491D1582A6DD0581368A0EB030923791C
:1019A000012B3AD1A1EB0B010023324638460591B9
:1019B00005F008FB05994B463A46009128460399E5
:1019C0000196FFF7B1FB2146284605F062FB022392
:1019D000237118B1164A136801331360002332468D
:1019E0004946039805F0EEFA049B3946A3EB0B0336
:1019F000039A2846CDE90096FFF796FB2146284634
:101A000005F047FB2368013323600123237130B1C4
:101A1000074A13680133136001E0022BDED008F19E
:101A20000108A8E7A1B90000CAB90000F9B900008F
:101A3000F01700202DE9F0418AB005460E46174602
:101A400000211C2203A81C4605F0CEFE03F0FCF981
:101A5000024640B145211D4805F0B2FD0024204654
:101A60000AB0BDE8F08144F24213ADF80C304FF4F7
:101A70000063DFF85C802146CDE90538202202AB07
:101A800003A803F0ABF8044618B1024645211148FB
:101A9000E2E740232A46CDE90073414633460298E7
:101AA00006F0EEFC024670B145210B4805F088FDBA
:101AB000029803F065F802460028D0D05721074865
:101AC00005F07EFDCBE70124F2E700BF2ABA000053
:101AD000000800064ABA00006CBA00009ABA00007A
:101AE000BFF36F8F72B600234FF0FF30094A03F146
:101AF00020010133102B42F82100F8D100234FF0D0
:101B0000FF30044A03F160010133102B42F8210039
:101B1000F8D1704700E100E0002318460649D1F8EB
:101B20009020C2F30722934200DB7047C1F898303F
:101B3000C1F8A0000133F6E700ED00E06722F8B538
:101B40000024224BC3F82823E5B2284602F0B6FA57
:101B50000134284602F064F9072CF5D14FF0FF3626
:101B6000002501271A4CE42000F0B0FDC620C4F87F
:101B7000086300F0ABFDE762C4F85051D4F850316F
:101B8000C4F84C51D4F84C31C4F82451D4F8243161
:101B9000C4F8005504F578344FF48270C4F8086333
:101BA00000F094FDE762C4F85051D4F85031C4F805
:101BB0004C51D4F84C31C4F82451D4F82431054B9D
:101BC000C4F80055C3F80863F8BD00BF00200E50EC
:101BD00000600C5000E01050014B1B68184700BF1C
:101BE0000401002007B50B4600210246009103487E
:101BF00000F006F803B05DF804FB00BFD91B00003D
:101C00002DE9F04F82464FF000098DB01D46531E5E
:101C100001910393039B58785C1C252819D100205F
:101C20004FF0FF381E464446034602360290317894
:101C30000396392955D81F2914D8002900F0EF81BF
:101C400001992520D04701993078D04709F1020940
:101C5000E0E7002800F0E3810199D04709F101098C
:101C60000394D7E7A1F12002192AE9D801A757F870
:101C700022F000BFDD1C0000411C0000411C0000E0
:101C8000DD1C0000411C00005D1D0000411C000027
:101C9000411C0000411C0000411C0000A91D000067
:101CA000DD1C0000411C0000BD1D0000691D00007E
:101CB000411C0000771D0000971D0000971D0000CB
:101CC000971D0000971D0000971D0000971D000044
:101CD000971D0000971D0000971D00000846013663
:101CE000A5E7582900F0EB80A1F16302D7B2172FC6
:101CF000A6D8172AA4D801A757F822F0651F00001C
:101D0000E31D0000411C0000411C0000411C0000BC
:101D1000C31D0000E31D0000411C0000411C000029
:101D2000C31D0000411C0000411C0000411C0000BC
:101D3000991E0000411C0000411C0000391F0000DA
:101D4000411C0000E31D0000411C0000411C00007C
:101D5000991E0000411C0000C31D000025200199B0
:101D6000D04709F1010955E7029A4FF0000802F047
:101D7000FE020292B3E7002C0DDAB8F1000F0DDA83
:101D8000029A002A00F043810A2224EAE47402FB4A
:101D90000414303CA3E7B8F1000FF5DB0A2202FB84
:101DA0000812A2F130089AE7B8F1000F55F8042B99
:101DB00080F22F81002A80F22E8154420222029268
:101DC0008DE7682903D1682B06D1482387E76C2962
:101DD00002D16C2B00F02181002B7FF431AF0B4638
:101DE0007DE77A2B06D1752955F8046B14D14FF095
:101DF000000B0CE06C2BF6D04C2BF4D1073525F002
:101E00000703752903F10805D3E9006B06D12028E3
:101E10003BD1854F013C09E04FEAE67BBBF1000F67
:101E2000F5DA7642814F6BEB4B0B013C0DF12D0344
:101E3000059300230493304659460A220023FEF7F7
:101E40001FFB059BB446303203F8012D5A4605931B
:101E5000049BBCF10A0F8B4672F1000203F1FF31C3
:101E600006460491E7D2C3F1010B30330DEB0306B4
:101E7000B8F1000FA6F104066DDA029BD9077DD4F4
:101E8000A8EB0B03A4EB0B0413E02B280ABF684F4D
:101E9000684F04F1FF34C9E770290FD155F8042BBE
:101EA0000023FAB96FF004034FF0050B614F624E47
:101EB000053C029A920770D4A04666E078216C2B0C
:101EC00003D1002355F8042B08E04C2BF9D107353A
:101ED00025F007031D465B6855F8082B232825D1FC
:101EE000880621D5554F023C002601F06001A1F182
:101EF000390B0DF12D0E02F00F01092988BF59444D
:101F000030310EF8011D102A4FEA121141EA037117
:101F10004FEA131C73F1000306F1FF3008D2C6F13B
:101F2000010B06F13003A1E7454FDCE7414FDBE74A
:101F300006460A466346DEE755F8046B304605F070
:101F400031FCB8F1000F834602DB4045A8BFC34611
:101F50004FF00008374FA8EB0B03002B92DDA4EBEA
:101F60000804A6E755F8043B4FF0010B8DF8183034
:101F7000304F4FF0FF33013C06AE9AE7A046EAE748
:101F8000029320200199D047029BB8F10108F7D5B0
:101F900024EAE472013C9144A41AB84606E0049392
:101FA00002920199D047029A049B9046424612F849
:101FB000010B0028F3D11A46013A15D5002BACBF0E
:101FC000C7EB03077F425B46013B15D5BBF1000F12
:101FD000A8BF5F4426464F44013E14D5002CA8BF3D
:101FE0003F1907EB080915E6049302923020019986
:101FF000D047049B029ADFE70293019916F8010B80
:10200000D047029BE0E701992020D047E4E7012276
:10201000D5E6904663E6144661E64C235FE6484603
:102020000DB0BDE8F08F00BFF2BA0000F0BA0000BA
:10203000F4BA000049BA0000FCBA0000F6BA000089
:10204000F9BA00002DE9F047058B044628079046B1
:1020500011D4022905F0070540F0CC80204605F098
:10206000B3F978B10138218B042811D8DFE800F0EA
:10207000C2106D85950001290CBF45F0100545F093
:102080002005258388F31188BFF36F8FBDE8F087A3
:1020900001F0070AAA4500F0A5800027B9463E4690
:1020A000A368002B00F0BC8041F00801218388F375
:1020B0001188BFF36F8FA168002900F0BA800D6806
:1020C000002900F0B680334652462046D1F80480FD
:1020D000C047002D76D02B6829461D46F0E701F059
:1020E00007035A1F012A1BD8002221F00701062BE3
:1020F000276889B2C4E9002209D13B4603E0628B1C
:10210000013262831B68002BF9D141F002012046A5
:10211000218305F059F900287AD041F0200176E0BA
:10212000042B0AD121F0070189B22046218305F052
:102130004BF910B141F020012183218B01F0070AF6
:10214000AA454FD00027B946AAE7236921F0070125
:1021500041F00601062DD3F8009021832DD1B9F16D
:10216000000F3FD041F00801218388F31188BFF3AD
:102170006F8F20463949C84729E021F007012369BC
:1021800041F0040189B2042DD3F804902183E6D0F4
:1021900000274FF0040A3E4682E721F00701236939
:1021A00041F0050189B2052DD3F808902183D6D0DE
:1021B00000274FF0050A3E4672E700274FF0060A57
:1021C0003E466DE72B4687E7B9F1000FD1D1EFF31B
:1021D0001188202383F31288BFF36F8F238B23F0A2
:1021E00008032383258BEA062ED525F010032383CD
:1021F00005F007056669218B002EBFF670AF00233E
:102200002768C4E9003321F0070141F0010121836F
:10221000218B4FF0000901F0070AAA457FF440AF77
:10222000002F9CD041F00801218388F31188BFF36F
:102230006F8F002FC8D03D6839463346524620463E
:1022400005F0EEF82F46F4E7AB067FF51BAF25F05F
:102250002003238305F0070500E700BF4D7400004D
:1022600070B5104B0D461C68B4B10F4B19680023B4
:102270008B4202DB6FF0010070BD224612F8106B3A
:10228000864202D014460133F2E7E06805F040FFD1
:1022900028B100202C60EFE76FF00C00ECE76FF046
:1022A0001200E9E708010020909D000010B5436886
:1022B00088B0029383680C46CDE9033200230A6894
:1022C000C068CDE90623054901AA059305F01AFB6C
:1022D000079808B9059B236008B010BDBF760000C1
:1022E00008B5054805F063F8044805F060F8BDE856
:1022F0000840034805F05BB802BB000033BB000098
:1023000066BB000008B50348034A0021121A05F015
:1023100011FA08BD9802002004280020074808B5DB
:10232000074A0849121A05F007FABDE808400648AE
:10233000064A0749121A05F0FFB900BF68000020DD
:102340009402002008BE000040000020640000202D
:10235000E0BD000030BFFFF7FDBF00BF154B9A6A1C
:1023600012F0007F9A6A14BF1E201D2012F0807F99
:102370009A6A18BF1F2012F4801F9A6A18BF0220A1
:1023800012F4002F9A6A18BF212012F4802F9A6A43
:1023900018BF222012F4003F9A6A18BF232012F4BB
:1023A000803F9A6A18BF24206FEA02426FEA124205
:1023B0009A62704700ED00E010B5194B0246986A2A
:1023C0009C6A10F4805F14BF1720162014F4006F6D
:1023D0009C6A18BF1820A40509D5986B986A000458
:1023E00004D51AB19A6A22F400429A6219200C4B61
:1023F0009A6A12F4806F9A6A18BF1A20D2050CD418
:102400009B6A13F4005F18BF1C20054A936A43F4CB
:102410007F43936200230B7010BD1B20F5E700BFC4
:1024200000ED00E010B51C4B0246986A9C6A10F063
:10243000100F14BF1120102014F0080F9C6A18BF51
:102440001220A40709D5586B986A000604D51AB162
:102450009A6A22F080029A6213200F4B9A6A12F055
:10246000010F9A6A18BF142012F0200F9A6A18BF41
:102470001520D40658BF9B6A074B9A6A920642BF42
:102480005A6A22F400525A629A6A42F0FF029A6231
:1024900000230B7010BD00BF00ED00E070B5444B91
:1024A00006465B6800258AB0C3F3080385F31188EC
:1024B000BFF36F8F02F07F40B0F17F4F11D102F078
:1024C0000C0008280DD010074CBF0E460125002235
:1024D000033B8DF80720032B05D8DFE803F01E5CD3
:1024E00060592E46F3E700249DF807309BB920225F
:1024F000314602A805F06DF9099B002D53D0C3F3B6
:10250000080222B96FEA53236FEA43230993204656
:1025100002A905F013F90AB070BD254BDA6A9107DC
:10252000E1D4DA6A002ADEDBDA6A5200DBD55A69C6
:10253000B16942F480725A61BFF34F8FBFF36F8F5E
:102540005A6931F8021C22F480725A61BFF34F8F2E
:10255000BFF36F8F4DF60272914209D09A6AD2B2E0
:1025600042B101200DF10701FFF75CFF0446BBE714
:102570003468B9E79A6A12F47F4F05D001200DF153
:102580000701FFF719FFF1E79B6AB3F5803FAAD374
:10259000FFF7E4FEEAE700200DF10701E4E7002081
:1025A0000DF10701EDE723F4FF7323F00103ADE71D
:1025B00000ED00E0064B5A6942F010025A615A6978
:1025C00042F480625A615A6922F008025A617047E7
:1025D00000ED00E0EFF30880EFF3098101B57246EA
:1025E000FFF75CFF01BD00BF002080F31488BFF33C
:1025F0006F8F002080F30A8880F30B880F4880F3E8
:10260000088800F057FF00200D490860BFF34F8F86
:1026100000F01AF8202080F311880A484FF4006176
:10262000401880F30988EFF314800221084380F3F7
:102630001488BFF36F8F00F08FF800000858002057
:1026400094ED00E00828002072B6002383F313887D
:102650004FF0FF300C4A03F120010133102B42F8F8
:102660002100F8D100234FF0FF30074A03F1600149
:102670000133102B42F82100F8D162B6BFF34F8F1F
:10268000BFF36F8F704700BF00E100E01EF0040F42
:102690000CBFEFF30880EFF30980816911F8021C89
:1026A0000229FFD001B5724605F04EF801BD00BF0A
:1026B00000B2002807DB01234109034A00F01F0094
:1026C000834042F82130704700E100E000B200286A
:1026D0000CDB01220649430900F01F008240203331
:1026E00041F82320BFF34F8FBFF36F8F704700BFB8
:1026F00000E100E0054B420953F82220012300F0DD
:102700001F0003FA00F01040704700BF00E100E036
:1027100000B2002801F10101ACBF00F16040064B9E
:102720004FEA4111C9B2ABBF00F5614000F00F00A4
:1027300080F800131954704714ED00E0044B054A6B
:1027400023F07F039360BFF34F8FBFF36F8F70470A
:102750000000000000ED00E008B5FFF7EFFF074ABA
:10276000D2F8883023F47003C2F88830FFF7CAFD2E
:10277000FFF7D4FD00F028F801F0B6FD00ED00E011
:10278000154680B506460C46002282F30B880A4F98
:10279000A7F5205888F30B8887F30988002004499F
:1027A0008847204629461A46B04702488047FEE738
:1027B0006977000077770000085800201022014B4D
:1027C0001A61704700ED00E00023202040F20F1254
:1027D00010B5044CE1180133934281F80003F9D19C
:1027E00010BD00BF00E100E008B5EFF30583064A25
:1027F000103B02EBC30152F8330049688847BDE83B
:10280000084004F0ACBF00BF2894000008B502489F
:1028100004F0CDFDFEE700BF94BB000008B5234ADD
:10282000234B1A6000F0ACF84FF47A612148D0F8DD
:102830002436C3F30802C3F309434B4382F4807286
:102840001D49883201FB02334FF4FA215B00B3FBD0
:10285000F1F201FB12331949B3F57A3F28BF013277
:10286000C1F80429D0F820364FF47A60C3F3080287
:10287000C3F30943434342F21C5082F4807202F2D4
:10288000172200FB02334FF47A701B0AB3FBF0F2FD
:1028900000FB1233B3F5FA7F4FF0010328BF01327A
:1028A000C1F81C27C1F80036002008BD0020A10790
:1028B0003802002000C0FF001C25008000001250DC
:1028C00048B1054B054A1B68B3FBF2F35843044B70
:1028D00043F00103184770473802002040420F00C0
:1028E000309D0000BFF34F8F0549064BCA6802F4C4
:1028F000E0621343CB60BFF34F8F00BFFDE700BF23
:1029000000ED00E00400FA0500222DE9F04109265F
:102910000127194B194CC3F8D426206805F0F8FBA1
:1029200010B3E388A268206821791343DD02D0F850
:102930000880D0F810C006D513F4402F03D0DA0772
:1029400048BF83F44023DCF8005023F4801207FAD8
:1029500001FEDB074CBF4EEA050525EA0E05CCF863
:102960000050D8F800309847013E04F10C04D4D14F
:102970003046BDE8F08100BF00600D50649E00004D
:102980000122024BC3F80424704700BF002008E076
:102990000022024BC3F80424704700BF002008E067
:1029A000084B70B5C31A0D4607499B10044659439E
:1029B0004022064804F02DFF2B4601462046BDE884
:1029C0007040184708180020B76DDBB674930000FC
:1029D000402373B50B4C0093041B0B460D460A496C
:1029E000A41061430646094A094804F03DFF011E50
:1029F00005DA30462B4602B0BDE87040184702B0F9
:102A000070BD00BF08180020B76DDBB6D778000096
:102A100074930000F8B500220121054640F205102C
:102A2000FFF776FE0F4800F0DDFD0446B8B900F070
:102A3000F9FD2F690C49384604F015FD031E09DB2A
:102A400001263E642D69084905F11C0004F00BFDC8
:102A5000031E02DA1C462046F8BDEE64FBE76FF069
:102A60000404F8E7F1780000D09E000010B5EFF301
:102A70001184202383F31288BFF36F8F074A1368F2
:102A800023F00201DB07116002D4012005F0D8F821
:102A900084F31188BFF36F8F10BD00BF581800205A
:102AA0000C22104B014602FB0033002030B4D3E966
:102AB0000E529863EFF31180202484F31288BFF341
:102AC0006F8F1C6C04F0C00444F002041C6480F39B
:102AD0001188BFF36F8F1DB12B4630BC02481847D9
:102AE00030BC7047081800207493000010B4EFF356
:102AF0001182202383F31288BFF36F8F1648016879
:102B000041F002040460C80707D482F31188BFF3C0
:102B10006F8F012010BC05F08BB81049D1F80C1450
:102B2000C903F2D5EFF3118083F31288BFF36F8FDF
:102B30000B490B6C03F0C00343F002030B6480F3FA
:102B40001188BFF36F8F82F31188BFF36F8F00205E
:102B500010BCFFF7A5BF00BF5818002000E01050C0
:102B600008180020C3B21C20014A03FB0020704754
:102B7000081800202DE9F843012207463249D1E820
:102B8000EF3FC1E8E02F0028F9D133B92F49304891
:102B90004B60CB608A6004F079FC7B1E012B2AD845
:102BA000012F06D12B4BD3F8503403F00303012B34
:102BB00021D005F0C7FA0546F8B9274B1B78E3B1D9
:102BC00004220646234BC3F808234FF00108214C8A
:102BD000DFF88890D4F84C24D4F84C34D20315D5BF
:102BE00003F00303012B01D0012F0FD135B386F37E
:102BF0001188BFF36F8FBDE8F883EFF311862023B0
:102C000083F31288BFF36F8F0125DEE7304604F0AF
:102C1000BAFDD4F8403413F0FF03DBD1D4F8082117
:102C2000002AD7D0C4F80831D4F808312023C4F8DA
:102C30004084C9F8A031C4F81080CBE70422054BCA
:102C4000C3F80423D7E700BF04180020F4170020BE
:102C50002418002000E01050FC27002000E100E0D4
:102C60000023024A0020C1E90023704700D017006A
:102C700000487047F49E0000024B0B600123136074
:102C8000704700BFFC9E0000024B034A0020C3F8BF
:102C90000C25704700B004508000008070B5164DC0
:102CA0001446A84225D8C0F5BE1303F580539A42B6
:102CB0001FD8C2B140F20113104DC5F80035A1B1C3
:102CC00004F087FDBFF35F8FD5F81834DA0705D419
:102CD000230703D00123AB60BFF35F8F4FF48072F3
:102CE000064BC3F80025002070BDFF2104F07CFDD9
:102CF000E8E76FF01500F7E7FFCF170000B00450CA
:102D000010461A46084B10B5994209D8C1F5BE14B1
:102D100004F58054A24203D804F05BFD002010BDEE
:102D20006FF01500FBE700BFFFCF170070B54668D6
:102D30000546B068C0B105F070F90146A0B9B068A9
:102D400000F0CAFE0446A8B902460C49B06805F076
:102D50004EF922460121DB20FFF7DAFC2246012151
:102D600040F20D10FFF7D4FC2846BDE8704004493E
:102D700004F03FBC6FF0040070BD00BF012F0000E5
:102D8000117A00002DE9F04340F206354768D0067D
:102D900048BF4FF0030C3B7C02EA050558BFC2F365
:102DA000401C87B001F01F06B5F5837F144646EA44
:102DB00043168DF803C046D00DD8062D45D005D852
:102DC000A5B1022D12D06FF0150039E0B5F5807F66
:102DD000F9D101250AE040F20222954237D0B5F53B
:102DE000407F36D0B5F5007FEDD1042501232203C5
:102DF00003FA01F12FD57B685960B86880BB5F2E5C
:102E000006F01F034FEA561173D83C4A52F82120AE
:102E100084F4803102EB8302D2F88030C1F30041A8
:102E2000C4F3404423F4706344EA410423F00F03E5
:102E30001C4344EA8C0444EA0524C2F88040002084
:102E400007B0BDE8F0830925D0E70825CEE70625C1
:102E5000CCE70525CAE7630344BF7B689960CCE7EC
:102E600031460DF1020205F0C5F814F4403F8046EA
:102E70000CD13146B86805F0D6F8B8F1000FDED1B4
:102E80009DF80210B86800F05FFED8E74FF0000927
:102E900001ABCDE90199CDE90439CDF80C9031466B
:102EA000B86803AA04F0EAFF4845C8DB14F400330D
:102EB00014D09DF8033084F48034C4F300448DF8BA
:102EC0000E308DF80C508DF80D404B463146B868E9
:102ED00003AA00F087FD0028CFDAB0E7CDE904337C
:102EE0000DF1030303933146B86803AA04F0C6FF4B
:102EF000F1E7203350F82330FFDE00BF049F0000CD
:102F00004209022A034670B503D0012A18D0CAB17B
:102F100070BD0E4E326951680029F9D0012503F0C9
:102F20001F030C689D400029F2D08A682A4002D015
:102F300030464B6898473CB1236821461C46F2E76F
:102F4000034EE7E7034EE5E72346F6E7E09300008C
:102F5000BC93000098930000F0B545681646A86839
:102F60002A7C01F01F0487B044EA4214002868D08C
:102F7000B6F5001F04D1214605F0A9F8002051E064
:102F80000020B6F5800F01AA0190506039D1B3F14D
:102F9000007F14BF052304238DF804300023CDE9FE
:102FA00004230393EB680DF1030723FA01F111F0F9
:102FB000010139D1B6F1A07F36D104F01F035F2C97
:102FC0004FEA541003F120033ED8214A52F8202042
:102FD00052F82330DB0727D43A462146A86805F08B
:102FE00009F8163018D002972146A86803AA04F001
:102FF00045FF002816DB01222146A86805F015F8D8
:10300000BCE7B3F1C06F05D0B3F1007F14BF01235B
:103010000223C1E70323BFE73946A86800F09EFDFD
:103020000028E0DA07B0F0BD3A462146A86804F06F
:10303000E1FF0028D8D19DF80310A86800F084FDB6
:10304000D2E76FF08500EDE751F82330FFDE00BFD7
:10305000049F000070B40D4CD4E90065901B63EB35
:103060000501400940EAC1604101891945EBD0657D
:10307000C4E90015002400250549C1E90023054BDA
:10308000C3E9004570BC01F089B900BFB802002057
:10309000A0020020B002002008B500220121E42097
:1030A000FFF736FB164A0020D2F8183723F44033D6
:1030B000C2F8183700F0C8FE002820DB01201149B3
:1030C00000F04EFF00281ADB00F084FE0E4B20F0CB
:1030D0001F00C3E900010D4B0022C3E900014FF0BE
:1030E000FF304FF0FF310A4BC3E90001094B0A4999
:1030F000187A00F07FFE67220020084B1A6008BD96
:1031000000200E5034020020B80200209802002057
:10311000A00200202C020020553000008018002062
:1031200010B500F07DFF0120FFF71CFD04F005FA4B
:10313000BDE81040054B064A1B684FF47A70B3FB9C
:10314000F2F35843034B43F00103184738020020C1
:1031500040420F00409D0000F7B5224B0146224F30
:10316000187A224BD7E90056D3E900239E4208BFC4
:10317000954211D1B1F1806F0ED24901012938BFBA
:10318000012101224D1946F10006C7E9005603B09E
:10319000BDE8F04000F0F4BF154BDFF858C0D3E9AC
:1031A0000043DCE9002CA41843EB0C0C4FF0200E7C
:1031B00022466346C1FB0E23954276EB0301C7E925
:1031C00000230DD2291B66EB0C04C82974F10004FE
:1031D000B4BF01210021009100F09AFF03B0F0BDBF
:1031E0000021F8E72C020020A8020020A002002005
:1031F000B8020020B002002040EA0103C3F3090333
:103200003BBBB1F5784F24D8154BD3F874250F2A62
:1032100022D1B1F5F84F10D9D8B9D3F86C250F2ABF
:103220001AD1C3F868054FF4F84002F5F91202F616
:10323000F672C3F86C25A1F5F84143F20503084A7C
:10324000890A43EA0143C2F870050020C2F87435C8
:1032500070476FF0150070476FF01B00704700BF9C
:1032600000B004504FF40061014801F025BA00BFDE
:10327000FC1F002030B5816885B0103921F00F04A3
:10328000054604F015FA10220146684604F0ACFA2F
:1032900010226846064904F09CFA10236A4621462B
:1032A000284604F0E9F9003818BF012005B030BD08
:1032B000EAB4000030B50D46816887B0102302AA39
:1032C0001039044604F0C3F9002802DA012007B0DF
:1032D00030BD1022204602A904F0D0FB00283AD1CC
:1032E00010221E4902A804F064FA00280CBF012332
:1032F00002232B70204604F0ADFB012301460DF1A3
:103300000702204604F0A3F90028DFDB9DF8073010
:10331000204603F00F021B096A702B7101220DF188
:10332000070104F0ABFB10B96B78042B03D9012320
:103330006B7000232B71A2682046203A22F00F0206
:10334000103AA91C04F0ADFB0028BFD12046E91CAF
:1033500004F001FCBBE70323CBE700BFEAB40000A5
:10336000F0B5354F85B046000546694657F826004A
:1033700004F0F7FB044610B1FF2005B0F0BD0136A4
:1033800057F8260002A904F0ECFB012837D12A46A1
:1033900049212A4804F014F9294B8DF80C40029376
:1033A00000229DF800609DF80870264C3146207878
:1033B00004F056FB50B33946607804F051FB28B353
:1033C000A378042B03D09DF8031099421ED1E37813
:1033D000042B03D09DF80B10994217D12379042BAD
:1033E00010D16279022A1DD1174B18482A4649216B
:1033F00004F0E6F86079831E022BBED9BCE70028F2
:10340000CED0B9E79DF802109942EAD00132032AE2
:1034100004F10604CAD10E482A46492104F0D0F826
:103420000120AAE7032A05D00A4B0B49042A08BF4A
:103430000B46DAE7094BD8E74C9F000011BC0000AF
:1034400003010303A6BC0000F3BB00005CBC00004A
:1034500080BC0000F8BB00000ABC0000EEBB00000E
:10346000064BD3F840231C2A05D1D3F84403431E4E
:103470005842584170470020704700BF00C0FF000D
:1034800003689A070CD50368DB070DD50922074BA3
:10349000C3F80C250F22C3F8042501221A60FEE7A9
:1034A000034B0360EF3B0360704700BF0080105088
:1034B000F000FA5008B501233C4A3D48C2F80038F4
:1034C0003C4AD2F840231C2A04BF3B4AC2F80C34C1
:1034D000FFF7D6FF0830FFF7D3FF0830FFF7D0FF24
:1034E0000830FFF7CDFF00F5F470FFF7C9FF334A4E
:1034F000D2F88C3043F44063C2F88C300022D30001
:1035000003F57F0303F54043D3F8001401310AD0DB
:10351000D3F8001439B1D3F800140132D3F80434CD
:10352000402A0B60EBD1214BD3F84024002A38D03D
:10353000FFF796FF48B11F4BD3F83423204B9A4234
:103540009EBF1A4B1F4AC3F84026FFF789FF18B1E8
:103550001D4B1E4AC3F8AC27FFF782FF48B1342247
:10356000124BC3F82426D3F83C2622F40022C3F8D9
:103570003C26174B1149D3F80026D20744BF6FF001
:103580000102C3F800260323124AC2F81835D1F805
:103590008C3043F44063C1F88C300023C2F8A0356E
:1035A00008BDC822C3F84024C2E700BF0000125083
:1035B00000C50D5000C0FF000030055000ED00E0D8
:1035C000001D0A1840E0A91E00A0085078000A0457
:1035D00000E0105000B00450014B1B68184700BFBA
:1035E0008418002010B50C4C237993B90123237162
:1035F0000A4B0028206018BF184600F0F3F850B9B5
:1036000023680748002B08BF1846BDE8104000F0AB
:1036100035B86FF0770010BD84180020D935000050
:103620002D7C000008B5074B1B6853B140F2051014
:10363000FFF760F828B9BDE8084040F20510FFF731
:1036400037B808BD8418002038B504230A4C42F26C
:103650001075C4F80833012363610023C4F80831EE
:10366000D4F80831D4F84C34DB0304D5012004F03D
:10367000A8FA013DF6D138BD00E01050064A137992
:103680003BB9012110601171044A1846C2F8403458
:1036900070476FF0770070478C18002000E01050E2
:1036A00010B51D4B1D4CD3F84C14D3F84C2411F419
:1036B000803F18D002F00302012A03D00AB1FFF7BD
:1036C000C3FF0022144BC3F840240022C3F8082192
:1036D000D3F8082101221A61226872B9D3F80821AF
:1036E000002AFBD011E0D3F84824D107E9D5D3F85C
:1036F00050249207E3D422681AB10422C3F80423A9
:1037000010BDD3F80821002AFBD00022C3F80821FD
:10371000D3F80831F4E700BF00E010508C18002007
:10372000F8B50125184C194ED4F80C3303F00C03EE
:1037300003B9F8BDB3FA83F30027C3F11F039A005E
:1037400002F5807292B202F1A04202F58712176070
:1037500005FA03F1022B1268D8B2C4F8081310D18D
:10376000D4F84C34D4F84C349B070AD10423C4F861
:103770004054C4F804332561D4F80C3303F00C032F
:10378000D6E733689847F7E700E010508C18002020
:10379000712238B5104B0021C3F80823012242F2F0
:1037A00010745A60C3F80011D3F800110B490A4D88
:1037B000D1F840131C2908BFDA60D5F80C3413F493
:1037C000803305D0012004F0FCF9013CF5D138BD6F
:1037D000034A5371FBE700BF00E0105000C0FF0038
:1037E00094180020054B0246187918B91A60012276
:1037F0001A7170476FF07700704700BF941800206F
:103800000022164BC3F81021D3F81011C3F8182169
:10381000D3F81811C3F81421D3F814111049D1F8B2
:1038200040131C2904BF01219960C3F80021D3F87B
:10383000002101221A600B4A126852B9074BD3F8D3
:103840000021002AFBD00022C3F80021D3F8003168
:1038500070477122C3F80423704700BF00E0105086
:1038600000C0FF0094180020F8B50126194C1A4D2D
:10387000D4F80C3303F0710303B9F8BDB3FA83F342
:103880000021C3F11F039A0002F5807292B202F187
:10389000A04202F58712116006FA03F7042B1268A2
:1038A000D8B2C4F8087308D0062B10D02B689847FC
:1038B000D4F80C3303F07103DEE702236B71C4F814
:1038C0001411D4F814312023C4F80433EEE76971DD
:1038D000ECE700BF00E0105094180020036803F0EC
:1038E0001F025F2B02604FEA53129ABF024B53F83C
:1038F00022000020704700BF549F0000034A430984
:10390000D35C00F01F001844C0B27047B8BC000080
:10391000F0B50646002487B0114F019117F8012B2E
:1039200006AB03EBD20313F8143C02F00702D340BA
:1039300013F0010306D10134032CEFD10023184604
:1039400007B0F0BD074A03AD07CA85E8070055F880
:1039500024100A6A46F824200A62002AEBD0EEE717
:10396000C8BC0000109D0000F7B504460846FFF7EC
:10397000C5FF06B204EB4606B38A0D46DB072BD51E
:10398000204604F058FA2946204604F0C4F958B1FC
:10399000204604F0D6F90022276800B207EB800326
:1039A000C3F81025C3F810252946204604F0F2F983
:1039B000002101A8B1820195FFF790FF019B00EB68
:1039C0008300D0F88020064B134043F00203C0F878
:1039D0008030084603B0F0BD6FF01500FAE700BF75
:1039E000F0F0FCFF2DE9F043044685B0084616468A
:1039F0001D46FFF783FF0F46804636B3204604F08E
:103A000095F918B9204604F086F928BB0FFA88F911
:103A100004EB4909B9F8143013F01C0F02D0737885
:103A2000012B19D001238DF80F3000233846CDE942
:103A30000063721CB31C0DF10F0104F014F9B9F806
:103A4000143043F00303A9F81430002D40D0394658
:103A5000204604F06BF920B96FF0150005B0BDE801
:103A6000F0830022297823684FEA810C03EB81035D
:103A7000C3F81025C3F810250FFA88F204EB4202B0
:103A8000938A23F4604323F0200393826E78FEB17F
:103A90002468A8786444D4F810550E4B36042B40A3
:103AA000C4F8103541F6F07306F4403603EA071304
:103AB0000005D4F81055334300F4801003432B4322
:103AC000C4F81035938A43EA413343F020039382CC
:103AD0000020C3E70FE0ECFF70B590F87440054696
:103AE00090F8756044BB46222146143003F07CFEFA
:103AF0002146134A2B6852F836608E4212D10024B8
:103B000040F20D10C3F84441D3F844210D4A9342CA
:103B100008BFDB20FEF7CCFD0123204685F874307A
:103B20002B6670BDCAB2920002F58070442A04BFB1
:103B30001C501A580131E0E76FF07700F1E700BF41
:103B4000609F000000A00D5090F87500024B03EB41
:103B5000800004F052B800BF3C02002010B5064BB4
:103B600090F875000C4603EB800004F02CF8002858
:103B7000A4BF2070002010BD3C0200202DE9F04FB2
:103B8000814659F8043B8BB0D3F8141390F8754074
:103B900000936C4BC9B241F40031804653F8342095
:103BA000009804F021F9810305463AD50023CDE9B8
:103BB00007330993634B07A803EBC4035B681946FB
:103BC0000193FFF7A5FE042303EBC40303934FF017
:103BD000000B5D4B0DF11C0A0293029A594912F831
:103BE000013B0292039A02EBD3028A5C03F00703C3
:103BF00022FA03F3DA071AD40BF1010BBBF1030F1E
:103C00000AF1040AE9D14FF400310022009804F0CF
:103C1000EBF8019907A8FFF77BFE0028D7D125F420
:103C200000350124002D75D10BB0BDE8F08F474B56
:103C30005B440493DAF800100029DDD091FAA1F179
:103C4000B1FA81F1049B1C7841EA44142046FFF745
:103C500055FE08EB4000878AC808BB08059301237E
:103C60001AF8002001F0070103FA01F122EA01022B
:103C70000AF8002006A80694FFF730FE069A059B76
:103C8000203250F82220C7F382065B073746C2F382
:103C9000014223D54846D6B221463A4604F05BF8A5
:103CA00006A80694FFF71AFE069B203350F823302F
:103CB000C3F301439E4207D10021204604F01CF8C3
:103CC0003146204604F018F806A80694FFF706FED1
:103CD0000122069B02FA03F30362ABE7022A0DD12D
:103CE0000321204604F008F806F00503012BEBD170
:103CF0003A462146484604F02EF8E5E702212046E0
:103D0000059203F0F9FF032EF2D0059A032ADBD1C6
:103D1000022EECE795FAA5F3B3FA83F3009904FABF
:103D200003F225EA020503F5A27251F8222008EBFE
:103D300043034846B3F86410C2F3014204F00BF8A1
:103D400070E700BF609F0000C8BC0000C8BC000056
:103D50000123054A83409268134013F0670F14BF94
:103D600001200020704700BF680000200123044AA2
:103D700003FA00F0936823EA00039360704700BFE2
:103D800068000020074B027AD3F8101521F00101DA
:103D90000A43C3F810250268C3F8A4264268C3F892
:103DA000AC26704700200E50012303FA00F010F0FB
:103DB000670F0AD0064B5B68DB4303F067030342DF
:103DC0000CBF6FF01500002070474FF0FF307047B8
:103DD000680000204FF0FF326FF0404330B5044CD4
:103DE000D4E90001824273EB0105F9D330BD00BF75
:103DF00040270E5030B50C25074B1C1894F8544042
:103E000005FB0433C3E9031218750123034A8340F9
:103E1000C2F8243330BD00BF6800002000200E50DF
:103E200008B50146FFF7A2FF01238B4013F0670F8F
:103E300004D0BDE80840034803F0DFBE4FF0FF3078
:103E400008BD00BF6C000020F0B53D4D85B02C785A
:103E5000002C6FD13B4A01AB07CA83E807003A49FF
:103E60001846D1F8102522F00202C1F81025FFF7FC
:103E700089FF0723672202F001012144013BCCB2F4
:103E80004FEA5202F7D1052C57D119464FF0010CD9
:103E90002B4E00246720CFB204E00CFA02F220EA95
:103EA0000200013490FAA0F25FFA84FEBE45B2FA35
:103EB00082F2F2D30131327505292A4482F8547016
:103EC00006F10C06E5D10121002420489A0801FAE8
:103ED00002F212F0670F18BF1C500433302BF5D1DB
:103EE000E420FEF7E5FB184B1949D3F8102503F53C
:103EF000C07322F00202C3F8902340F6FF72C3F8A9
:103F0000A82100221A60A3F5807004338B4202605E
:103F1000F8D101240C4B0F4A1C660F4B5D201B6827
:103F2000B3FBF2F358430D4B2343984700202C700A
:103F300005B0F0BD6FF07700FAE76FF08B00F7E7A0
:103F4000680000201C9D000000200E5000210E5033
:103F5000B0210E5040420F0038020020509D00005A
:103F600073B52B4C0546636801A803F001030E46A8
:103F7000019303F028FE00283FDB002320753370F7
:103F8000636823F001036360A36843F00103A36047
:103F9000204BD3F81025900733D4D3F8102542F0E6
:103FA0000202C3F81025C5B1D3F8482712F0010268
:103FB00002BFD3F8481741F00101C3F84817154B69
:103FC000D3F84017D3F844174900F9D42AB9D3F8E5
:103FD000482722F00102C3F848270F4B0F4A1B68FD
:103FE000B3FBF2F30B4A03EB43136BB1D2F8401768
:103FF000D2F8440710F0804001D102B070BD013BFF
:10400000F3E76FF07700F8E76FF07300F5E700BFB4
:104010006800002000200E503802002040420F00AF
:104020002DE9F8430025224E672374684FF00108FC
:10403000E443A9461F4F04F06704C7F82833E9B2E8
:10404000DCB9E420FEF742FB1A4BD3F8482722F0F4
:104050000102C3F84827D3F8102522F00102C3F863
:104060001025D3F8102522F00202C3F810250122F2
:104070005A669A663470BDE8F8830846FFF768FE12
:1040800098B10846FFF772FE736808FA01F2DB4345
:1040900003F06703134208D007EB0113C3F82C9514
:1040A000E30702D5044803F0A8FD64080135C6E71C
:1040B0006800002000200E506C00002038B501463A
:1040C000FFF772FE0446D8B90846FFF741FEC8B1B3
:1040D00001250846FFF74AFE0C4B8D4003EB011209
:1040E000C2F82C45D3F820232A4209D0C3F828531C
:1040F000890003F580735A5812B15C506FF0730455
:10410000204638BD6FF01504FAE700BF00200E50BE
:1041100070B51D461446184A9DF81060131893F8A0
:10412000543000B20C3302EBC30142F833404D600F
:10413000C5F31301AEB10201104E02F1A04202F527
:1041400062228000C2F820450644C2F82415336874
:1041500033B1FFF73FFEA042A94101D200233360F3
:1041600070BD030103F1A04303F56223C3F82045AA
:10417000C3F82415F4E700BF6800002000210E50AA
:10418000F0B50E4D2B1893F8543000010C3355F850
:10419000334005EBC3077E68641800F1A04021F0AE
:1041A000004146F1000641EAC27100F5622045F87F
:1041B00033407E60C0F82815F0BD00BF68000020C5
:1041C000F7B5284B284CD3F82C6304F188070EB9B7
:1041D00003B0F0BD96FAA6F00123B0FA80F0834058
:1041E000DA43224926EA0306231893F85450830041
:1041F00019440C2303FB0543DB6873B3D7E8EF3F97
:1042000003EA020CC7E8EECFBEF1000FF6D1C340BF
:10421000DB0719D5020102F1A04202F56222D2F8B1
:104220002435D2F82025D1F800C0BCF1000FCED043
:104230004FF0000CC1F800C00C2101FB05452969B5
:104240000091E9688847C2E705F10C0304EBC30C51
:1042500054F83320DCF80430E5E70A68002AB6D0C9
:104260000B60B4E700200E506800002000210E50C3
:10427000044B40EA0120C3F80005D3F80024D2071C
:10428000FBD5704700B0045038B50A4B53F82040B6
:10429000013053F82050A54200D838BD606830B1D5
:1042A000037FDB0701D403F01BFF0834F3E7236827
:1042B0009847FAE7709F0000012208B5084B0320D9
:1042C0001A70FFF7E1FFFEF70BF80420FFF7DCFFA1
:1042D000FCF772FA034A137B23F00103137308BD42
:1042E000FC270020C002002008B50020FFF7CCFF0B
:1042F000154B03F5006282F3088883F30A880025D2
:10430000E023124C84F82230E57725766576A57691
:1043100084F82050636A43F4E023636284F82350F6
:10432000FEF748F9FEF74AFA4FF0FF330120A36287
:10433000E362FFF7A9FF0220FFF7A6FF2B462A46FC
:1043400029460348FEF71CFA0828002000ED00E08B
:10435000B9420000024B1868984208BF002070471D
:104360004402002030B570B10B4B5B6898420AD014
:10437000036843B1D3E90421D0E90445121941EBA4
:104380000501C3E90421D0E9003213605A6000231B
:10439000C0E9003330BD00BF440200202DE9F047E2
:1043A000EFF31185202383F31288BFF36F8FDFF8BB
:1043B0009C900026C9F800000027FFF7CBFFDFF82C
:1043C0009080D9F80030D8E900ECD91750B1D0E985
:1043D0000442A34271EB020A19DAE41A62EB010209
:1043E000C0E90442002413EB0E034CEB010120460C
:1043F000C8E90031C9F8004003F0AAFE2146FEF7E3
:10440000ABFE85F31188BFF36F8FBDE8F08714EB27
:104410000E024CEBE473C0E90467C8E90023FFF720
:10442000A1FF85F31188BFF36F8F83689847EFF37F
:104430001185202383F31288BFF36F8FD9F80030E2
:104440001B1BC9F80030FFF785FFBAE79C18002056
:104450004003002001680E4A0346914215D1C1690C
:10446000A2F11022A2F1EF1291420ED18268012A2C
:104470000BD8C26812B101698A4206D0586928B1C6
:104480009B691B1A5842584170470120704700BF72
:1044900055AA00FF70B50D4B9E68A6B13046FFF7D8
:1044A000D9FF044678B9F3686BB935690DB9204670
:1044B00070BD2846FFF7CEFF28B9EB68B34202D1A2
:1044C0002E462D69F2E70124F1E700BFA018002075
:1044D000F8B5384E3468F368D4B1B468C4B1002874
:1044E00060D000295ED001FB00F5B5FBF0F08842FA
:1044F00058D1291D56D8AA070CD025F00302043242
:104500001C4603E0616891424ED2A469002CF9D1A7
:104510002046F8BD2A46F3E7891A232904F120072B
:104520001CD80123A360D4E90523AAB19361A36930
:104530000BB162695A610023C4E905333369DB07B3
:1045400003D5FFF7A7FF002831D12A4600213846BE
:104550003C4603F049F9DBE7F360E8E702F1200CA1
:1045600004EB0C032039C3E90110DC602169124817
:10457000196144F80C00A0F11020A0F1EF10D861EF
:1045800001B1CB6061695961A069986141B18B61EA
:10459000996901B14B6101212361C4E90121CAE795
:1045A000F360F5E70024B3E7A0680028B4D0012049
:1045B000FEF72CF9A018002055AA00FF70B505469B
:1045C000002840D03B4E3368002B3CD0B268002A14
:1045D00039D0834203D872681344984202D3012031
:1045E000FEF714F9A0F120042046FFF733FF00285E
:1045F000F5D155F8183C012BF1D155F8143C45F88C
:10460000180C0BB39A68FAB955F81C2C02F120016A
:104610005A680A445A6055E905321A6155F8145C23
:104620002B6903B1DD6020220021204603F0DCF875
:10463000286908B183684BB333699B0703D5FFF73B
:1046400029FF0028CBD170BD55F8100C00282AD0C6
:10465000836843BB42686368134420336360036923
:104660002361D4E905239AB9CBB9436963618269AF
:10467000A261B3B19C61A36903B15C61236903B119
:10468000DC602022002103F0AFF8D5E72C46E1E7FB
:104690009361A369002BE8D062695A61E5E7F36092
:1046A000F7E7F460E7E7F36845F8083C03B15C61BD
:1046B000F460C1E7A018002038B50C461422002190
:1046C0000546134803F090F81249134800F034F8F7
:1046D000232C1CD915F003031FBF043CE418C3F1BD
:1046E0000403ED1822460021284603F07DF8084B0C
:1046F0000A49C3E90054203C9D606C609A681160CF
:104700009A68A1F11021A1F1EF11D161DA6038BDF1
:10471000A0180020BD450000D144000055AA00FFAC
:10472000014B1B68184700BF50020020014B1B685B
:10473000184700BF4C020020024B1860024B0020BB
:1047400019607047500200204C02002010B50A4644
:10475000044619B1024B00211B68984710BD00BFE9
:10476000540200200E4B0340B3F1607F06D1B1F537
:10477000885F14BF6FF0860000207047B3F1707F30
:104780000BD101F4E043B3F5005F06D111F4E06F03
:104790000CBF6FF08600002070476FF086007047F6
:1047A0000000C07F8A4270B506460D4600F0ED80DD
:1047B000784922F4FF7323F001038B4213D022F0D7
:1047C000FF0001F5885188420DD0734C22F47F71AF
:1047D00021F00301A14206D07049884203D001F5BF
:1047E00074518B422CD16E4B25F0FF0199420FD1B1
:1047F00015F0FF000BD06B4B40F00070984240F07A
:10480000C68082EA0500FF288CBF0020012070BD11
:10481000654B9942ECD0A3F588539942E8D025F432
:10482000FF7323F00103B3F1062FE1D05B4881420F
:10483000DED05E498B42DBD0A1F584418B42D7D0DC
:1048400005F0FE43B3F1A06F13D102F0FE43B3F1C4
:10485000A06F40F0888082EA050333F47E1340F0B5
:1048600082802E047FD5C5F30540C2F305429042F5
:10487000CAE74F498D420BD14E4B9A4200F08580DA
:104880004D4B22F47E10984214BF00200120BEE759
:10489000B3F1407F67D102F0FE43B3F1407F62D1B4
:1048A00082EA050030F47E145DD131462846FFF7D8
:1048B00059FF00286BD1414B12F47C1103EA02032B
:1048C00018D0B3F1607FC2F305413DD13C48D3B26B
:1048D00043F0007383423BD003F17E43043B112B32
:1048E00001D83848C45C15F47C1FC5F3054331D1A9
:1048F0008C42C9E7B3F1607F0DD13148D3B243F0A8
:10490000007383421ED003F17E43043B112BDDD89C
:104910002D49C95CDAE7B3F1707FE4D106F4E043D6
:10492000B3F5005F03D10121C6F30223994006F4D9
:10493000E043B3F5005FD6D10120C6F3022600FAAA
:1049400006F4D0E71021C1E7B3F1707FCBD1EEE7D9
:104950001024C8E712F47C1F01D1A34215D02C0407
:1049600001D58B4250E725F0004323F47F03B3F1D8
:10497000106F0CD102F0FE43B3F1106F07D1134852
:10498000104040F01060A8427EE701203FE7002081
:104990003DE700BF00020006000400060009000613
:1049A00000030006FF000002001300060046000698
:1049B0000093C0040013C004000140050000C07F44
:1049C00003000002CBBC0000CBBC00000000FFF6DF
:1049D00021F4FF7310B521F0FF022A4C23F00103EC
:1049E000002839D021F4BF6020F00700A0422CD06D
:1049F0002548824229D0A0F52060824225D0234A52
:104A0000934222D0A2F5844293421ED0204B994279
:104A100035D021F47F7323F0030302F580429342E3
:104A20002DD01C4B99422AD003F58073994226D091
:104A300003F58073994222D003F58073994208BF31
:104A4000002018BF6FF0860005E0C9B2002914BF2E
:104A500000206FF0860010BDA342FCD00A4CA24299
:104A6000F9D021F47F7121F00301A4F57064A14213
:104A7000F1D009498A42EED0044A9342E1E700208E
:104A8000E9E700BF0002000600130006004600062A
:104A90000008000600480006000900062DE9F8435A
:104AA000884617461C4600F0A7FA054688BBD8F88A
:104AB0000060B6F8009009F4E043B3F5804FB368A6
:104AC00008BF27F0010737EA03031AD10CB3274BBD
:104AD00024F0FF029A421FD114F0FF0304D0244AAD
:104AE00043F00073934236D022464846F168FFF700
:104AF00059FE074668B9224648463169FFF752FE1B
:104B000090BB6FF0840500233046C8F8003003F0F6
:104B100011FD2846BDE8F883164B9A42DCD0A3F578
:104B200088539A42D8D024F4FF7323F00103B3F1E1
:104B3000062FD1D010498A42CED0104A9342CBD012
:104B4000A2F584429342C7D004F0FE43B3F1407F04
:104B500004D12304C8D56FF08605D4E7B3F1A06F64
:104B6000F7D0034B9C42BEE73D46D2E70003000668
:104B7000FF000002001300060009000600460006C0
:104B800013B50446F0B101A900F036FA0446C8B9DD
:104B90000198037F022B18D1032303770379FF2B9E
:104BA00016D043690C4A03F14043A3F58053934266
:104BB00002D800F0DFFB0446019803F0A6FC0028B1
:104BC00018BF0446204602B010BD6FF09604F3E70C
:104BD0006FF08404F0E700BFFFDFFF3F2DE9F041F5
:104BE00016469846002288B0038805460F46CDE950
:104BF00004220796C8F80020002E62D0B6F1005FAC
:104C000080F0A68023F0FF03B3F5E24F02D0B3F5A6
:104C1000824F21D1284603F0BFFA0446002840F015
:104C20009080EB686BB16B885BB1288800F44F42D1
:104C3000B2F5824F05D1C0B2222837D02ED8122823
:104C400039D03A460023F11912F8010B914243EA98
:104C50000003F9D1002B34D0284605AA04A903F09B
:104C6000F7FA0446A0B9049B9B6A6BB3049B3946D0
:104C70005A882846069206AA029203F12802019257
:104C80009A6A00925B6A324600F0F0FA044680B3FA
:104C90000498002855D003F086FB52E02738C0B2B4
:104CA0001B28CED82C4AC240D207CAD50733B6EB50
:104CB000D30FC6D205E040F209229342F6D1402E2E
:104CC000BFD86FF086043CE06B681B0A07D10799D8
:104CD000049803F028FB04460028C7D0D8E73246E2
:104CE0003946284607AB00F091FA04460028EED07A
:104CF000CEE70499069B4A88E2B94B804FF6F872DA
:104D00000699049B914220D82A8812B119889142B1
:104D100012D16A8812B1598891420DD15A69C8F8E6
:104D200000201A7F012A0AD000236FF09604C8F8E9
:104D30000030ADE79A42E1D06FF08604A8E7022286
:104D40001A77204608B0BDE8F0816FF085049FE730
:104D50006FF08504F5E700BF0102000C2DE9F0417A
:104D600017461C46204A23F4FF7323F001039342A5
:104D700005460E4696B013D024F0FF0102F5885286
:104D800091420DD0194824F47F7222F0030282422E
:104D900006D0174A914203D002F57452934220D1B3
:104DA000DDE91C1205AB0193402314F0FF000DF167
:104DB000180818BF40F000700093434600F0BAFA9C
:104DC00060B91F9B3A4603931E9B31460293059B95
:104DD0002846CDE90083234600F0F6F916B0BDE879
:104DE000F0816FF08500F9E700020006000400067C
:104DF0000009000610B5124C2378590744BF23F070
:104E00000403237023789A0705D500F099F82378D6
:104E100023F002032370637813B10A4803F0BAFB4E
:104E20000023042107486370FFF790FC2378DB0719
:104E300005D503F08CFB237823F00103237010BD0C
:104E4000B4180020B818002038B51C4D6A782B78AB
:104E5000022A01D1072B12D0D80713D52B78990736
:104E600007D400F065F82B78044643F002032B705A
:104E700088B96A782B788AB12B785A0719D500241B
:104E8000204638BD03F061FB2B78044643F0010354
:104E90002B700028E2D0FFF7ADFFF1E7DB07EBD581
:104EA000074803F075FB022304466B700028F2D11B
:104EB000E2E743F004032B70E1E700BFB4180020E1
:104EC000B818002000F140431F2B70B505460E4670
:104ED0000CD82C22154C02FB0344237F022B02D159
:104EE0006369834218D06FF08B001AE0012103F050
:104EF000FBFAB8B10D4B00221C46197F022902D1E2
:104F00005969A94205D00132202A03F12C03F4D1BA
:104F1000E9E72C2303FB0244204603F0D8FA00B94A
:104F2000346070BD6FF08700FBE700BFBC18002045
:104F30000122024B002083F880257047BC18002016
:104F40002DE9F0410A4C002526464FF001080327C1
:104F50002046C4F820802777013503F024FA202D5D
:104F600004F12C04F4D1002386F88035BDE8F081EB
:104F7000BC180020F8B51E4D064695F880350F4642
:104F80007BB300242B462246197FD1B13CB90229BC
:104F900005D1196A19B91979002918BF1C460132BF
:104FA000202A03F12C03EFD114B96FF08C0006E036
:104FB000204603F08CFA204603F0F5F910B10024E6
:104FC0000DE01C46237F7BB90123237736B1094BC3
:104FD000651BAD105D4305F18045356000203C60E8
:104FE000F8BD6FF08800EAE76FF09600E7E700BFD2
:104FF000BC180020A38B2EBAF0B50027544B0F60CD
:1050000093F8803505460E4691B0002B00F09C8049
:10501000FFF758FF10F18C0F044640F08E803146A8
:105020003846FFF7A7FF0446002840F0868001229B
:10503000336801465D61336809A85A601C223568EF
:1050400002F0D2FB002200236869CDE90623414A21
:1050500000F14043A3F580539342CDE90444039407
:1050600005D9284603F09FF96FF0870420E006AACF
:1050700003A903F091FA0446002837D1039B6A691B
:105080000A93DBB2002B08BF00220346CDE90000E3
:10509000DDE906010E9209AA00F030F910F18A0F3D
:1050A000044608D030680CBB03F07DF96FF096041D
:1050B0000023336041E004A909A800F0BFF80446CA
:1050C000A0B92846049903F02EF9044670B9DDE929
:1050D000060105AB0193AB6A09AA00936B6A00F065
:1050E0000DF9044648B1284603F052F9306803F040
:1050F0005AF914F18C0FDBD1B6E72C46059BAB6255
:1051000009AD0FCD0FC495E8070084E807003368A8
:105110009A68D00414D49A68910444BF42F400629F
:105120009A6033681A7F012A04BF02221A77306816
:1051300003F0CDF904460028BAD1204611B0F0BDE5
:1051400042F480629A60E6E76FF08804F5E700BFFA
:10515000BC180020FFDFFF3F2DE9F04F0D4616463B
:105160001749426885B0B1EB122F1F46DDE90E8961
:10517000DDE910AB04464FEA122303D0114A9342F3
:1051800000D063B93B46324629462046CDE902AB02
:10519000CDE9008903F021FB10F1860F0CD13B46CD
:1051A000324629462046CDE910ABCDE90E8905B03F
:1051B000BDE8F04FFFF7D2BD05B0BDE8F08F00BFEE
:1051C000004E80004B4E80002DE9F041DFF8348026
:1051D0004568DDE90667B8EB152F4FEA1524DDE9D0
:1051E00008CE03D0084DAC4200D03CB9CDE908CE82
:1051F000CDE90667BDE8F04103F00BBB6FF0860018
:10520000BDE8F081004E80004B4E8000194610B47E
:10521000002443680C60074C1A0AB4EB132F02D029
:10522000054B9A4202D110BC00F0EEB96FF0860037
:1052300010BC7047004E80004B4E800010B400241C
:1052400043680C60074C1A0AB4EB132F02D0064BCC
:105250009A4202D110BC00F0D7B96FF0860010BCA2
:10526000704700BF004E80004B4E80002DE9F04F8C
:10527000DFF880B0D0F804E085B0BBEB1E2F044609
:10528000DDE90E890D4616461F46DDF840A04FEABF
:105290001E2C1CD0DFF860E0F44518D0BCF1000FE4
:1052A00022D1CDE9019ACDF8008000F053FD10F134
:1052B000860F1BD13B46324629462046CDE90F9A40
:1052C000CDF8388005B0BDE8F04F03F03FB83B465D
:1052D000324629462046CDE90F9ACDF8388005B0F0
:1052E000BDE8F04F00F036BD6FF0860005B0BDE8B8
:1052F000F08F00BF004E80004B4E8000F0B4DFF80E
:105300002CC05468DDE90456BCEB142F4FEA142777
:1053100002D0074CA74204D1CDE90456F0BC00F0FE
:10532000DFBD6FF08B00F0BC704700BF004E800007
:105330004B4E800010B4054CA04202D010BC03F0CC
:105340009EBA6FF0850010BC704700BF05000002D8
:10535000074B10B59942044606D0043003F0CCFA4E
:1053600008B90523236010BD6FF08500FBE700BF7F
:10537000050000024268044BB3EB122F01D103F089
:105380006DBB6FF0850070474B4E800010B50C4C24
:10539000207803F0A4FF0B4A1368591C11604BB925
:1053A000094A4820D2F8003443F00703C2F8003419
:1053B000FDF77EF92078BDE8104003F092BF00BFF2
:1053C000FD270020401E00200080045038B5164DF7
:1053D000287803F084FF154B1C68013C1C60ECB975
:1053E0004820FDF773F90722114BC3F80823D3F8BF
:1053F000002422F00702C3F80024C3F80041D3F8C8
:105400000021C3F80441D3F804214FF48072C3F89B
:105410000841D3F80831074BC3F888212878BDE844
:10542000384003F05EBF00BFFD270020401E002073
:105430000080045000E100E070B5154D154E2B685A
:10544000B34222D0FFF7A2FF01F0B4FA124A134B85
:10545000134952F8040B43F8040B8B42F9D101F0C5
:10546000A1FB38B103F09AF80446FFF7AFFF3CB94F
:105470002E6005E000F012FF044618B1FFF7A6FF0A
:10548000204670BD03F087FBEEE70024F8E700BF7D
:105490005802002011736500889F000000C08051F1
:1054A0001CD3805100230B6010F0FF0317D043F092
:1054B000007303F17E43053B0E2B10D8DFE803F0A9
:1054C0000A0F0F0A0A0A080F0F0F0F0A0A0A0A002A
:1054D000084B0B600B6853B96FF08500704700F004
:1054E000FE40B0F1007FF7D06FF0860070470020DB
:1054F000704700BF3CB40000302816D00DD81238D9
:10550000C0B2192806D801231C4A83401A408ABB1E
:10551000DB071ED46FF086007047412821D0422857
:10552000F8D1FF291FD1164B21E0B1F5A07F21D082
:1055300004D8E0291ED0B1F5807F04E0B1F5C07F2A
:1055400018D0B1F5007F0CBF6FF085006FF08600BA
:105550007047B1F5C07F0DD0EBD940F209239942D5
:10556000F1E7FF2902D0B1F5E07FECE7054B002021
:10557000136070476FF08500704700BF2002210262
:1055800078B400006CB400002DE9F0411D4B94B0DC
:10559000D0F8048006460F4601A8196801F020FBE8
:1055A000DDE90154DCB922463146284603AB03F05D
:1055B000E3FD044698B9284603F09CFDDDE903129B
:1055C0000346384603F0A5FC284603F03EFE284675
:1055D00003F03EFD0446284601F02CFB2CB120468A
:1055E00014B0BDE8F04102F0D9BF414603A803F072
:1055F000A9F803A8414603F0A5F8204614B0BDE879
:10560000F08100BFB4B4000010B51E4C4368B4EB89
:10561000132F4FEA132215D142691B4B9A420CD02B
:1056200003F5FF437D331344012B03D80388B3F5FF
:10563000105F24D06FF0860019E047F21213028841
:105640009A42F6E7114B9A42F4D1028802F44F4392
:10565000B3F5824F0CD1438844F2121007338242D3
:105660004FEAD30301D15B00013300200B6010BD72
:10567000B2F5885F03D143880733DB08F5E70223DF
:10568000F3E700BF004E800001C0FF7F4B4E80005B
:105690004FF480732DE9F04796B0804603A803933A
:1056A000002503F05BF84FF010091C4E0DF12F049C
:1056B00024F01F0406F1200A01221021184802F0EC
:1056C000D8FF631900935246102320211348CDF8C8
:1056D000049000F013FF0746E0B9D6E90C3210350C
:1056E000013342F10002302DC6E90C32E4D1B8F1A9
:1056F000000F04D02A464146204602F0ADFF20228A
:105700002146064802F065F81022054804F1200100
:1057100002F05FF8384616B0BDE8F0874803002075
:1057200068030020F0B5194D194FAB6B8DB0BB422B
:1057300029D0184E307803F0D2FD402300221946BC
:10574000284602F0F4FF3021684603F014F80446BE
:1057500078B96846FFF79CFF044690B930230246AB
:105760001946684602F0E3FF01220023C5E90C2335
:10577000AF63307803F0B5FD204602F00FFF0DB0A7
:10578000F0BD0E24F5E70020F9E700BF4803002034
:10579000B4A5B4A5FE2700202DE9F04F99B00DF176
:1057A000570802F10F0982460C46154628F01F08DB
:1057B0004FEA191922B1002970D0B2F5803F6DD897
:1057C000384F394E387803F08AFDD6E90C3213434E
:1057D0000BD15046FFF7A6FF834630B1387803F06F
:1057E00080FD584619B0BDE8F08FD6E90C2319EBBF
:1057F000020243F10003B3F5803F14D3302102A825
:1058000002F0B9FFE8B902A8FFF742FF834600287B
:10581000E4D130230246194602A802F088FF002294
:105820000023C6E90C234FF4807302A8029302F010
:1058300095FFDFF878903DB92846FFF729FF8346AA
:10584000CCE76FF0920BC9E7102D4FF001024FF03B
:1058500010014846AA4628BF4FF0100A02F009FF7F
:1058600010234A462021CDE900830F4800F046FE70
:1058700083460028B2D1434604EB0A0213F8011B09
:1058800004F8011B9442F9D1D6E90C32013342F1FC
:105890000002C6E90C32A5EB0A05CCE76FF0860BD7
:1058A0009FE700BFFE270020480300206803002078
:1058B0000022074BC3F81021C3F80C21C3F80021C4
:1058C000C3F80421C3F80821C3F81421704700BFAE
:1058D0000050045008B5FFF7EBFF01230360104BA5
:1058E0000A6832B9D3F80C211AB9D3F80821002A72
:1058F000F6D00B687BB90B4B99420ED0A3F584739D
:10590000D3F80831002B0CBF4FF0FF306FF00200CE
:10591000FFF7CEFF08BD0020FAE74FF0FF30F7E7B2
:10592000005004500851045038B505460C4691B15A
:105930000021012002F0CDFB08480949C0F80055BC
:10594000C0F80445FFF7C6FF00210446084602F0F0
:10595000C0FB204638BD6FF00104FAE70050045048
:1059600000510450034B0449C3F800050348FFF7F6
:10597000B1BF00BF00500450045104500450045003
:1059800010B504460021012002F0A3FB064B074995
:10599000C3F800450648FFF79DFF0021044608466E
:1059A00002F097FB204610BD0050045008510450EF
:1059B0000850045038B50C4659B1074D0749C5F891
:1059C00000050748FFF786FF10B9D5F808352360B2
:1059D00038BD6FF00100FBE7005004501051045037
:1059E0000C5004502DE9F04383B099460B88904643
:1059F00023F0FF0200AFB2F5824F0C46BE6A02D020
:105A0000B2F5E24F3AD126F4FF7222F00102B2F170
:105A1000062F0BD0794A964208D002F20B1296421A
:105A200004D026F0FF010B3A914227D1A268D8B9E1
:105A300012F4005F00F0DB8044F2010223F44051D5
:105A4000914203F44F4012D16288D20810320732DB
:105A500022F00702ADEB020D0022B0F5824F6D4639
:105A600061887A6021D16FE012F4006FE2E7B0F54F
:105A7000844F09D162880732D208E8D16FF08500DF
:105A80000C37BD46BDE8F083B0F5884F0FD1618873
:105A9000CB1DDB0803EB430308336A46DB08A2EBAC
:105AA000C3039D4600236D467B6000234CE0B0F5A8
:105AB0008E4FDFD0B0F5824F18D1D8B2422861881E
:105AC00004D101F10802D208073206E0CA1D4128BC
:105AD0004FEAD2025ED0520008326846D208A0EBEC
:105AE000C202954600226D467A602DE0A3F5804300
:105AF000023B0B2BC2D801A252F823F02D5B000011
:105B00007D5A00006B5B00007D5A00007D5A00004A
:105B1000755B00007F5B00007D5A00007D5A00002D
:105B2000895B00007D5A0000895B00004FF4A07281
:105B300061884B0953436A462733DB08A2EBC30352
:105B40009D4600236D467B603A1DD8B2FFF7D4FC1A
:105B5000002895D162682A4BB3EB122F1DD16FF04C
:105B6000020002F01BFD50B38AE761884FF4C07257
:105B70000B0ADFE76188CB1DDB081F338DE76188E7
:105B8000CB1DDB08233388E76188CB1DDB085B0076
:105B90000B3382E7002A97D170E7184B9E4203D05F
:105BA00003F20B139E42DAD1238823F0FF03B3F5EF
:105BB000824F17D14A464146284601F00AFE7B68CB
:105BC0005A68BB6BB3EB420F14D10C4B9E427FF46F
:105BD00055AFD7E90C23F96A284602F036FE02F0E9
:105BE000DDFC4DE72946404600F03AF8B9E76FF092
:105BF000860045E76FF0940042E700BF000800060A
:105C0000004E8000F0B51E46134B9BB0CDE9040159
:105C1000CDE90236222120239DF88040CDE90613EC
:105C200084F0010405460AAF06A902A8CDE90832AE
:105C300000970A4BC4F1040201EB840100EB8400DD
:105C400002F049FD30B933462946384606F12002B4
:105C500003F0A6F91BB0F0BD640200203CB40000C4
:105C600030B591B00D466B462021114A02F040FD3F
:105C70000446C8B9684603F027FB2023224619468C
:105C80000DEB030002F053FD684608A903F074F918
:105C9000044648B9202228460DEB020101F099FD87
:105CA0004021684602F04EFD204611B030BD00BFD5
:105CB0003CB400002DE9F0410388C76803F44F4469
:105CC000B4F5824F08BF1D4603F4E0441F4B18BFD4
:105CD000002500209E46EDB21E78AE4224D1D3E9C5
:105CE000026CD2F80080B4F5804F08BF6646B8F168
:105CF000000F0CD18E420AD1142303FB00E3596834
:105D000011601B7CB3B96FF08500BDE8F081D3F85A
:105D100004C0E04508D18E4202D06FF08600F4E75F
:105D2000142303FB00E3ECE70130132803F1140311
:105D3000D2D1F2E7422D06D1054B9F4203D003F2A8
:105D40000B139F42E9D10020DFE700BFA4B200009F
:105D5000000800062DE9F04F154600229DB08A4646
:105D6000DDF8A0B02799DDF89880994606460388AB
:105D7000CBF800200A60B8F1000F60D04268554CA3
:105D8000110AB4EB122F25D107A94769FFF73CFC94
:105D90000446D8B9079B434500F29580FFB22B46D5
:105DA00052463946304600F02DF9044670B9279B1B
